{
  "contractName": "dBank",
  "abi": [
    {
      "inputs": [
        {
          "internalType": "contract Token",
          "name": "_token",
          "type": "address"
        }
      ],
      "stateMutability": "nonpayable",
      "type": "constructor"
    },
    {
      "anonymous": false,
      "inputs": [
        {
          "indexed": true,
          "internalType": "address",
          "name": "user",
          "type": "address"
        },
        {
          "indexed": false,
          "internalType": "uint256",
          "name": "collateralEtherAmount",
          "type": "uint256"
        },
        {
          "indexed": false,
          "internalType": "uint256",
          "name": "borrowedTokenAmount",
          "type": "uint256"
        }
      ],
      "name": "Borrow",
      "type": "event"
    },
    {
      "anonymous": false,
      "inputs": [
        {
          "indexed": true,
          "internalType": "address",
          "name": "user",
          "type": "address"
        },
        {
          "indexed": false,
          "internalType": "uint256",
          "name": "etherAmount",
          "type": "uint256"
        },
        {
          "indexed": false,
          "internalType": "uint256",
          "name": "timeStart",
          "type": "uint256"
        }
      ],
      "name": "Deposit",
      "type": "event"
    },
    {
      "anonymous": false,
      "inputs": [
        {
          "indexed": true,
          "internalType": "address",
          "name": "user",
          "type": "address"
        },
        {
          "indexed": false,
          "internalType": "uint256",
          "name": "fee",
          "type": "uint256"
        }
      ],
      "name": "PayOff",
      "type": "event"
    },
    {
      "anonymous": false,
      "inputs": [
        {
          "indexed": true,
          "internalType": "address",
          "name": "user",
          "type": "address"
        },
        {
          "indexed": false,
          "internalType": "uint256",
          "name": "etherAmount",
          "type": "uint256"
        },
        {
          "indexed": false,
          "internalType": "uint256",
          "name": "depositTime",
          "type": "uint256"
        },
        {
          "indexed": false,
          "internalType": "uint256",
          "name": "interest",
          "type": "uint256"
        }
      ],
      "name": "Withdraw",
      "type": "event"
    },
    {
      "inputs": [
        {
          "internalType": "address",
          "name": "",
          "type": "address"
        }
      ],
      "name": "collateralEther",
      "outputs": [
        {
          "internalType": "uint256",
          "name": "",
          "type": "uint256"
        }
      ],
      "stateMutability": "view",
      "type": "function",
      "constant": true
    },
    {
      "inputs": [
        {
          "internalType": "address",
          "name": "",
          "type": "address"
        }
      ],
      "name": "depositStart",
      "outputs": [
        {
          "internalType": "uint256",
          "name": "",
          "type": "uint256"
        }
      ],
      "stateMutability": "view",
      "type": "function",
      "constant": true
    },
    {
      "inputs": [
        {
          "internalType": "address",
          "name": "",
          "type": "address"
        }
      ],
      "name": "etherBalanceOf",
      "outputs": [
        {
          "internalType": "uint256",
          "name": "",
          "type": "uint256"
        }
      ],
      "stateMutability": "view",
      "type": "function",
      "constant": true
    },
    {
      "inputs": [
        {
          "internalType": "address",
          "name": "",
          "type": "address"
        }
      ],
      "name": "isBorrowed",
      "outputs": [
        {
          "internalType": "bool",
          "name": "",
          "type": "bool"
        }
      ],
      "stateMutability": "view",
      "type": "function",
      "constant": true
    },
    {
      "inputs": [
        {
          "internalType": "address",
          "name": "",
          "type": "address"
        }
      ],
      "name": "isDeposited",
      "outputs": [
        {
          "internalType": "bool",
          "name": "",
          "type": "bool"
        }
      ],
      "stateMutability": "view",
      "type": "function",
      "constant": true
    },
    {
      "inputs": [],
      "name": "deposit",
      "outputs": [],
      "stateMutability": "payable",
      "type": "function",
      "payable": true
    },
    {
      "inputs": [],
      "name": "withdraw",
      "outputs": [],
      "stateMutability": "nonpayable",
      "type": "function"
    },
    {
      "inputs": [],
      "name": "borrow",
      "outputs": [],
      "stateMutability": "payable",
      "type": "function",
      "payable": true
    },
    {
      "inputs": [],
      "name": "payOff",
      "outputs": [],
      "stateMutability": "nonpayable",
      "type": "function"
    }
  ],
  "bytecode": "0x608060405234801561001057600080fd5b506040516112e43803806112e48339818101604052602081101561003357600080fd5b8101908080519060200190929190505050806000806101000a81548173ffffffffffffffffffffffffffffffffffffffff021916908373ffffffffffffffffffffffffffffffffffffffff16021790555050611250806100946000396000f3fe6080604052600436106100865760003560e01c806375a40d2a1161005957806375a40d2a14610185578063cdebd932146101ea578063d0e30db014610251578063e68d35691461025b578063ff87930a1461026557610086565b8063179fc99f1461008b5780633ccfd60b146100f05780633fac68d514610107578063737320241461011e575b600080fd5b34801561009757600080fd5b506100da600480360360208110156100ae57600080fd5b81019080803573ffffffffffffffffffffffffffffffffffffffff1690602001909291905050506102ca565b6040518082815260200191505060405180910390f35b3480156100fc57600080fd5b506101056102e2565b005b34801561011357600080fd5b5061011c6106c2565b005b34801561012a57600080fd5b5061016d6004803603602081101561014157600080fd5b81019080803573ffffffffffffffffffffffffffffffffffffffff169060200190929190505050610af1565b60405180821515815260200191505060405180910390f35b34801561019157600080fd5b506101d4600480360360208110156101a857600080fd5b81019080803573ffffffffffffffffffffffffffffffffffffffff169060200190929190505050610b11565b6040518082815260200191505060405180910390f35b3480156101f657600080fd5b506102396004803603602081101561020d57600080fd5b81019080803573ffffffffffffffffffffffffffffffffffffffff169060200190929190505050610b29565b60405180821515815260200191505060405180910390f35b610259610b49565b005b610263610e29565b005b34801561027157600080fd5b506102b46004803603602081101561028857600080fd5b81019080803573ffffffffffffffffffffffffffffffffffffffff1690602001909291905050506111bb565b6040518082815260200191505060405180910390f35b60016020528060005260406000206000915090505481565b60011515600460003373ffffffffffffffffffffffffffffffffffffffff1673ffffffffffffffffffffffffffffffffffffffff16815260200190815260200160002060009054906101000a900460ff161515146103a8576040517f08c379a000000000000000000000000000000000000000000000000000000000815260040180806020018281038252601a8152602001807f4572726f722c206e6f2070726576696f7573206465706f73697400000000000081525060200191505060405180910390fd5b6000600160003373ffffffffffffffffffffffffffffffffffffffff1673ffffffffffffffffffffffffffffffffffffffff1681526020019081526020016000205490506000600260003373ffffffffffffffffffffffffffffffffffffffff1673ffffffffffffffffffffffffffffffffffffffff16815260200190815260200160002054420390506000662386f26fc10000600160003373ffffffffffffffffffffffffffffffffffffffff1673ffffffffffffffffffffffffffffffffffffffff16815260200190815260200160002054026301e33731029050600082820290503373ffffffffffffffffffffffffffffffffffffffff166108fc859081150290604051600060405180830381858888f193505050501580156104d2573d6000803e3d6000fd5b5060008054906101000a900473ffffffffffffffffffffffffffffffffffffffff1673ffffffffffffffffffffffffffffffffffffffff166340c10f1933836040518363ffffffff1660e01b8152600401808373ffffffffffffffffffffffffffffffffffffffff16815260200182815260200192505050600060405180830381600087803b15801561056457600080fd5b505af1158015610578573d6000803e3d6000fd5b505050506000600260003373ffffffffffffffffffffffffffffffffffffffff1673ffffffffffffffffffffffffffffffffffffffff168152602001908152602001600020819055506000600160003373ffffffffffffffffffffffffffffffffffffffff1673ffffffffffffffffffffffffffffffffffffffff168152602001908152602001600020819055506000600460003373ffffffffffffffffffffffffffffffffffffffff1673ffffffffffffffffffffffffffffffffffffffff16815260200190815260200160002060006101000a81548160ff0219169083151502179055503373ffffffffffffffffffffffffffffffffffffffff167f02f25270a4d87bea75db541cdfe559334a275b4a233520ed6c0a2429667cca9485858460405180848152602001838152602001828152602001935050505060405180910390a250505050565b60011515600560003373ffffffffffffffffffffffffffffffffffffffff1673ffffffffffffffffffffffffffffffffffffffff16815260200190815260200160002060009054906101000a900460ff16151514610788576040517f08c379a00000000000000000000000000000000000000000000000000000000081526004018080602001828103825260168152602001807f4572726f722c206c6f616e206e6f74206163746976650000000000000000000081525060200191505060405180910390fd5b60008054906101000a900473ffffffffffffffffffffffffffffffffffffffff1673ffffffffffffffffffffffffffffffffffffffff166323b872dd33306002600360003373ffffffffffffffffffffffffffffffffffffffff1673ffffffffffffffffffffffffffffffffffffffff168152602001908152602001600020548161080f57fe5b046040518463ffffffff1660e01b8152600401808473ffffffffffffffffffffffffffffffffffffffff1681526020018373ffffffffffffffffffffffffffffffffffffffff1681526020018281526020019350505050602060405180830381600087803b15801561088057600080fd5b505af1158015610894573d6000803e3d6000fd5b505050506040513d60208110156108aa57600080fd5b810190808051906020019092919050505061092d576040517f08c379a000000000000000000000000000000000000000000000000000000000815260040180806020018281038252601b8152602001807f4572726f722c2063616e6074207265636569766520746f6b656e73000000000081525060200191505060405180910390fd5b6000600a600360003373ffffffffffffffffffffffffffffffffffffffff1673ffffffffffffffffffffffffffffffffffffffff168152602001908152602001600020548161097857fe5b0490503373ffffffffffffffffffffffffffffffffffffffff166108fc82600360003373ffffffffffffffffffffffffffffffffffffffff1673ffffffffffffffffffffffffffffffffffffffff16815260200190815260200160002054039081150290604051600060405180830381858888f19350505050158015610a02573d6000803e3d6000fd5b506000600360003373ffffffffffffffffffffffffffffffffffffffff1673ffffffffffffffffffffffffffffffffffffffff168152602001908152602001600020819055506000600560003373ffffffffffffffffffffffffffffffffffffffff1673ffffffffffffffffffffffffffffffffffffffff16815260200190815260200160002060006101000a81548160ff0219169083151502179055503373ffffffffffffffffffffffffffffffffffffffff167ffd9bbd044fa427970e4d882ebbb4a89ce422dc29b23f2777a14a93ecdf42c644826040518082815260200191505060405180910390a250565b60046020528060005260406000206000915054906101000a900460ff1681565b60036020528060005260406000206000915090505481565b60056020528060005260406000206000915054906101000a900460ff1681565b60001515600460003373ffffffffffffffffffffffffffffffffffffffff1673ffffffffffffffffffffffffffffffffffffffff16815260200190815260200160002060009054906101000a900460ff16151514610c0f576040517f08c379a000000000000000000000000000000000000000000000000000000000815260040180806020018281038252601d8152602001807f4572726f722c206465706f73697420616c72656164792061637469766500000081525060200191505060405180910390fd5b662386f26fc10000341015610c6f576040517f08c379a00000000000000000000000000000000000000000000000000000000081526004018080602001828103825260228152602001806111f96022913960400191505060405180910390fd5b34600160003373ffffffffffffffffffffffffffffffffffffffff1673ffffffffffffffffffffffffffffffffffffffff1681526020019081526020016000205401600160003373ffffffffffffffffffffffffffffffffffffffff1673ffffffffffffffffffffffffffffffffffffffff1681526020019081526020016000208190555042600260003373ffffffffffffffffffffffffffffffffffffffff1673ffffffffffffffffffffffffffffffffffffffff1681526020019081526020016000205401600260003373ffffffffffffffffffffffffffffffffffffffff1673ffffffffffffffffffffffffffffffffffffffff168152602001908152602001600020819055506001600460003373ffffffffffffffffffffffffffffffffffffffff1673ffffffffffffffffffffffffffffffffffffffff16815260200190815260200160002060006101000a81548160ff0219169083151502179055503373ffffffffffffffffffffffffffffffffffffffff167f90890809c654f11d6e72a28fa60149770a0d11ec6c92319d6ceb2bb0a4ea1a153442604051808381526020018281526020019250505060405180910390a2565b662386f26fc10000341015610e89576040517f08c379a00000000000000000000000000000000000000000000000000000000081526004018080602001828103825260258152602001806111d46025913960400191505060405180910390fd5b60001515600560003373ffffffffffffffffffffffffffffffffffffffff1673ffffffffffffffffffffffffffffffffffffffff16815260200190815260200160002060009054906101000a900460ff16151514610f4f576040517f08c379a00000000000000000000000000000000000000000000000000000000081526004018080602001828103825260128152602001807f4c6f616e20616c72656164792074616b656e000000000000000000000000000081525060200191505060405180910390fd5b34600360003373ffffffffffffffffffffffffffffffffffffffff1673ffffffffffffffffffffffffffffffffffffffff1681526020019081526020016000205401600360003373ffffffffffffffffffffffffffffffffffffffff1673ffffffffffffffffffffffffffffffffffffffff1681526020019081526020016000208190555060006002600360003373ffffffffffffffffffffffffffffffffffffffff1673ffffffffffffffffffffffffffffffffffffffff168152602001908152602001600020548161101f57fe5b04905060008054906101000a900473ffffffffffffffffffffffffffffffffffffffff1673ffffffffffffffffffffffffffffffffffffffff166340c10f1933836040518363ffffffff1660e01b8152600401808373ffffffffffffffffffffffffffffffffffffffff16815260200182815260200192505050600060405180830381600087803b1580156110b357600080fd5b505af11580156110c7573d6000803e3d6000fd5b505050506001600560003373ffffffffffffffffffffffffffffffffffffffff1673ffffffffffffffffffffffffffffffffffffffff16815260200190815260200160002060006101000a81548160ff0219169083151502179055503373ffffffffffffffffffffffffffffffffffffffff167fe1979fe4c35e0cef342fef5668e2c8e7a7e9f5d5d1ca8fee0ac6c427fa4153af600360003373ffffffffffffffffffffffffffffffffffffffff1673ffffffffffffffffffffffffffffffffffffffff1681526020019081526020016000205483604051808381526020018281526020019250505060405180910390a250565b6002602052806000526040600020600091509050548156fe4572726f722c20636f6c6c61746572616c206d75737420626520677420302e3031204554484572726f722c206465706f736974206d75737420626520677420302c303120455448a264697066735822122071a27cc2305e5166a649ee605a6322cee5b22981e3785f1a24750c84d84171e864736f6c63430007060033",
  "immutableReferences": {},
  "source": "// SPDX-License-Identifier: MIT\r\npragma solidity >=0.6.0 <0.8.0;\r\n\r\nimport \"./Token.sol\";\r\n\r\ncontract dBank {\r\n\r\n    //assign Token contract to variable\r\n    Token private token;\r\n\r\n    //add mappings\r\n    mapping(address => uint) public etherBalanceOf;\r\n    mapping(address => uint) public depositStart;\r\n    mapping(address => uint) public collateralEther;\r\n\r\n    mapping(address => bool) public isDeposited;\r\n    mapping(address => bool) public isBorrowed;\r\n\r\n    //add events\r\n    event Deposit(address indexed user, uint etherAmount, uint timeStart);\r\n    event Withdraw(address indexed user, uint etherAmount, uint depositTime, uint interest);\r\n    event Borrow(address indexed user, uint collateralEtherAmount, uint borrowedTokenAmount);\r\n    event PayOff(address indexed user, uint fee);\r\n\r\n    //pass as constructor argument deployed Token contract\r\n    constructor(Token _token) public {\r\n        //assign token deployed contract to variable\r\n        token = _token;\r\n\r\n    }\r\n\r\n    function deposit() payable public {\r\n        //check if msg.sender didn't already deposited funds\r\n        require(isDeposited[msg.sender] == false, \"Error, deposit already active\");\r\n\r\n        //check if msg.value is >= than 0.01 ETH\r\n        require(msg.value >= 1e16, \"Error, deposit must be gt 0,01 ETH\");\r\n\r\n        //increase msg.sender ether deposit balance\r\n        etherBalanceOf[msg.sender] = etherBalanceOf[msg.sender] + msg.value;\r\n\r\n        //start msg.sender hodling time\r\n        depositStart[msg.sender] = depositStart[msg.sender] + block.timestamp;\r\n\r\n        //set msg.sender deposit status to true\r\n        isDeposited[msg.sender] = true;\r\n\r\n        //emit Deposit event\r\n        emit Deposit(msg.sender, msg.value, block.timestamp);\r\n    }\r\n\r\n    function withdraw() public {\r\n        //check if msg.sender deposit status is true\r\n        require(isDeposited[msg.sender] == true, \"Error, no previous deposit\");\r\n        uint userBalance = etherBalanceOf[msg.sender];\r\n\r\n        //assign msg.sender ether deposit balance to variable for event\r\n\r\n        //check user's hodl time\r\n        uint depositTime = block.timestamp - depositStart[msg.sender];\r\n\r\n        //calc interest per second\r\n        //31668017 - interest(10 % APY) per second for min. deposit amount (0,01 ETH), cause\r\n        //1e15 (10% of 0,01 ETH) / 31577600 (seconds in 365.25 days)\r\n        //(etherBalanceOf[msg.sender] / 1e16) - calc how much higher interest will be (based on deposit)\r\n        //for min deposit (0,01 ETH), (etherBalanceOf[msg.sender] / 1e16 = 1 (the same, 31668017/s)\r\n        // for deposit 0,02 ETH, (etherBalanceOf[msg.sender] / 1e16 = 2 (doubled, 2 * 31668017/s)\r\n        uint interestPerSecond = 31668017 * (etherBalanceOf[msg.sender] * 1e16);\r\n        //calc accrued interest\r\n        uint interest = interestPerSecond * depositTime;\r\n\r\n        //send eth to user\r\n        msg.sender.transfer(userBalance);\r\n        //send interest in tokens to user\r\n        token.mint(msg.sender, interest);\r\n\r\n        //reset depositer data\r\n        depositStart[msg.sender] = 0;\r\n        etherBalanceOf[msg.sender] = 0;\r\n        isDeposited[msg.sender] = false;\r\n\r\n        //emit event\r\n        emit Withdraw(msg.sender, userBalance, depositTime, interest);\r\n    }\r\n\r\n    function borrow() payable public {\r\n        //check if collateral is >= than 0.01 ETH\r\n        require(msg.value >= 1e16, \"Error, collateral must be gt 0.01 ETH\");\r\n\r\n        //check if user doesn't have active loan\r\n        require(isBorrowed[msg.sender] == false, \"Loan already taken\");\r\n\r\n        //add msg.value to ether collateral,\r\n        //this Ether will be locked till user payoff the loan\r\n        collateralEther[msg.sender] = collateralEther[msg.sender] + msg.value;\r\n\r\n        //calc tokens amount to mint, 50% of msg.value\r\n        uint tokensToMint = collateralEther[msg.sender] / 2;\r\n\r\n        //mint&send tokens to user\r\n        token.mint(msg.sender, tokensToMint);\r\n\r\n        //activate borrower's loan status\r\n        isBorrowed[msg.sender] = true;\r\n\r\n        //emit event\r\n        emit Borrow(msg.sender, collateralEther[msg.sender], tokensToMint);\r\n    }\r\n\r\n    function payOff() public {\r\n        //check if loan is active\r\n        require(isBorrowed[msg.sender] == true, \"Error, loan not active\");\r\n\r\n        //transfer tokens from user back to the contract\r\n        //must approve dBank first\r\n        require(token.transferFrom(msg.sender, address(this), collateralEther[msg.sender] / 2), \"Error, can`t receive tokens\");\r\n\r\n        //calc 10% fee\r\n        uint fee = collateralEther[msg.sender] / 10;\r\n\r\n        //send user's collateral minus fee\r\n        msg.sender.transfer(collateralEther[msg.sender] - fee);\r\n\r\n        //reset borrower's data\r\n        collateralEther[msg.sender] = 0;\r\n        isBorrowed[msg.sender] = false;\r\n\r\n        //emit event\r\n        emit PayOff(msg.sender, fee);\r\n    }\r\n}",
  "sourcePath": "/home/fvs/project/DeFi_DBank/src/contracts/dBank.sol",
  "compiler": {
    "name": "solc",
    "version": "0.7.6+commit.7338295f.Emscripten.clang"
  },
  "schemaVersion": "3.4.1",
  "updatedAt": "2021-06-29T19:18:22.776Z",
  "networkType": "ethereum",
  "devdoc": {
    "kind": "dev",
    "methods": {},
    "version": 1
  },
  "userdoc": {
    "kind": "user",
    "methods": {},
    "version": 1
  }
}